:020000040800F2
:10000000780D002031020008E1220008C12100081B
:10001000DD220008E10600085D2500080000000060
:100020000000000000000000000000004125000862
:10003000E506000800000000E5220008452500084C
:100040004B0200084B0200084B0200084B0200085C
:100050004B0200084B0200084B0200084B0200084C
:100060004B0200084B0200084B0200084B0200083C
:100070004B0200084B0200084B0200084B0200082C
:100080004B0200084B0200084B0200084B0200081C
:100090004B0200084B0200084B0200084B0200080C
:1000A0004B0200084B0200084B0200084B020008FC
:1000B0004B0200084B0200084B0200084B020008EC
:1000C0004B0200084B0200084B0200084B020008DC
:1000D0004B0200084B0200084B0200084B020008CC
:1000E0004B0200084B0200084B0200084B020008BC
:1000F0004B0200084B0200084B0200084B020008AC
:100100000000000000000000000000004B0200089A
:100110004B0200084B0200084B0200084B0200088B
:100120004B0200084B0200084B0200084B0200087B
:100130004B0200084B020008000000000000000015
:100140004B0200084B0200084B02000800000000B0
:10015000000000000000000000000000000000009F
:1001600000000000000000004B0200084B020008E5
:100170004B0200080000000000000000000000002A
:10018000000000004B02000800F002F800F040F808
:100190000AA090E8000C82448344AAF10107DA45E2
:1001A00001D100F035F8AFF2090EBAE80F0013F0F4
:1001B000010F18BFFB1A43F00103184784410000E8
:1001C000A4410000103A24BF78C878C1FAD8520779
:1001D00024BF30C830C144BF04680C6070470000C1
:1001E0000023002400250026103A28BF78C1FBD840
:1001F000520728BF30C148BF0B6070471FB503F0DE
:10020000B7FF9DE8030000F029F91FBD10B510BD30
:1002100000F0E4F91146FFF7F1FF02F0A1F900F058
:1002200002FA03B4FFF7F2FF03BC00F033FA000058
:100230000948804709480047FEE7FEE7FEE7FEE77A
:10024000FEE7FEE7FEE7FEE7FEE7FEE704480549B6
:10025000054A064B7047000049250008890100083F
:1002600078010020780D002078090020780900200E
:1002700070B5A0FB0140B4F1805170F1000024BFC3
:10028000002070BD204600F007F805001CBF214685
:1002900000F057F9284670BD70B5064600F0C2F868
:1002A000056806F10B0020F00704B4429CBF002053
:1002B00070BD2B466A68BAB11068A04210D304F131
:1002C000080188423CBF5068586007D35168101934
:1002D00041601168091B016058601460101D70BDF9
:1002E00013465268002AE7D12146284600F0A2F8BA
:1002F0000028DED170BD70B50446051F00F092F8ED
:100300000068002C14BF446870BD002C18BFAC42BC
:100310003CBF20466468F8D301680A18AA4218BF97
:10032000456003D12A6805461144016028684119D7
:10033000A1421CBF6C6070BD61686960216808449F
:10034000286070BD032A40F2308010F0030C00F0EA
:10035000158011F8013BBCF1020F624498BF11F8FF
:1003600001CB00F8013B38BF11F8013BA2F10402B8
:1003700098BF00F801CB38BF00F8013B11F0030330
:1003800000F0AD80083AC0F0088051F8043B083A0C
:1003900051F804CBA0E80810F5E7121D5CBF51F836
:1003A000043B40F8043BAFF30080D20724BF11F8B0
:1003B000013B11F801CB48BF11F8012B24BF00F815
:1003C000013B00F801CB48BF00F8012B70474FF00C
:1003D000000200B5134694469646203922BFA0E895
:1003E0000C50A0E80C50B1F12001BFF4F7AF0907A1
:1003F00028BFA0E80C5048BF0CC05DF804EB890092
:1004000028BF40F8042B08BF704748BF20F8022BD4
:1004100011F0804F18BF00F8012B704770477047EC
:100420007047000000487047180000207047704770
:100430007047704738B504460A4600206946AFF356
:100440000080002808BF38BD02460099204600F011
:10045000A3F8012038BD012000F0B8B8F8B5AFF31B
:100460000080054600200C46102000BF0646A81953
:10047000A0420DD9324669460020AFF30080070044
:1004800008BF00F0A3F80098A04218BF0546C419A1
:10049000FFF7C8FF05600746F01D20F0070046196A
:1004A000284600F00AF8B44208BFF8BDA21B314646
:1004B0003868BDE8F84000F06FB800210160C0E97D
:1004C000011070471020704710B500F061F8006807
:1004D00010BD10B5044600F05BF8046010BD10B507
:1004E000203AC0F00B80B1E81850A0E81850B1E8ED
:1004F0001850A0E81850203ABFF4F5AF5FEA027C2C
:1005000024BFB1E81850A0E8185044BF18C918C05B
:10051000BDE810405FEA827C24BF51F8043B40F8FC
:10052000043B08BF7047D20728BF31F8023B48BFE1
:1005300011F8012B28BF20F8023B48BF00F8012B1F
:1005400070474FF000020429C0F0128010F0030C35
:100550003FF43FAFCCF1040CBCF1020F18BF00F820
:10056000012BA8BF20F8022BA1EB0C01FFF731BF34
:100570005FEAC17C24BF00F8012B00F8012B48BFC3
:1005800000F8012B70470000004870471000002061
:100590000048704710000020034640688C46002841
:1005A00018BF88423CBF03464068F8D31868184417
:1005B000884207D00CF1030020F00700001D411A0B
:1005C000521A0146081D0A60FFF795BE10B500F0EB
:1005D00039F8BDE8104000F02FB870477546FFF7B6
:1005E000D3FFAE4605006946534620F00700854616
:1005F00018B020B5FFF72AFEBDE820404FF00006F6
:100600004FF000074FF000084FF0000BAC46ACE88D
:10061000C009ACE8C009ACE8C009ACE8C00921F0E9
:1006200007018D46704710B50446AFF300802046A1
:10063000BDE81040FFF7F5BD002801D000F02AB852
:100640007047000010B5012805D0002103A000F07C
:1006500027F8012010BD09A1F8E7000053494752CF
:10066000544D454D3A204F7574206F662068656182
:1006700070206D656D6F7279000000003A2048654A
:100680006170206D656D6F727920636F7272757025
:100690007465640001491820ABBEFEE72600020025
:1006A00070B505460C460A2000E06D1C00F011F8FC
:1006B00035B128780028F8D102E0641C00F009F870
:1006C00014B120780028F8D1BDE870400A20AFF3BB
:1006D000008008B569468DF800000320ABBE08BD58
:1006E000FEE7000070470000EFF3108072B600BF15
:1006F000FEE700002DE9F04381B0951C88460446D2
:10070000012029469146FFF7B3FD06462846FFF72C
:10071000C3FD074644F0800040F600043070FF201F
:10072000C4F60004707020464FF40051002200F01F
:10073000DDFE40F210104FF0FF3CABB2C2F2000001
:1007400031463A46CDF800C001F0B2FB05462046DE
:100750004FF40051012200F0C9FE25B9791C404632
:100760004A46FFF7EFFD3046FFF7C5FD3846FFF775
:10077000C2FD284601B0BDE8F083000070B5044614
:10078000002600F10E0188201A22CFF6FF76FFF72F
:10079000B1FF04F12801E1200722FFF7ABFFA07BA6
:1007A000E17B04F13C0C40EA01200906206344BFD0
:1007B00030432063207C617CA27CE37C40EA0125FD
:1007C000080642EA032048BF354365631906A06363
:1007D00044BF3043A0636069A169E269236A8CE881
:1007E0000F00A18C94F82700A4F84C100106206596
:1007F00044BF60F0FF00206594F8281094F8292089
:1008000094F82A0041EA0221120648BF314361658B
:100810000106A06544BF60F0FF00A06594F82C209D
:1008200094F82B1094F82D3002F00F0040EA0115D7
:1008300009064FEA031106F5704041EA121148BF5C
:100840000543E5651A06216644BF0843206694F80F
:100850002E00010648BF60F0FF00606670BD00001A
:100860002DE9F04F81B02DED068B86B08046806E6D
:1008700003F0B7F89FED6A0B53EC102B02F030FE3B
:100880000446D8F8500089460590D8E915A0049090
:10089000D8F85C0003F0A5F80546D8F860000E46CD
:1008A00003F09FF89FED600B53EC102B03F03CF925
:1008B00002460B4620464946A34603F035F99FED14
:1008C0005C0B07460C4653EC102B2846314603F0D0
:1008D0002BF93A46234602F003FE0446D8F87C0082
:1008E0000D4603F095F822462B4602F0F9FDCDE9BE
:1008F0000210504603F075F89FED4F0B53EC102B90
:1009000003F012F9CDE90010049803F06AF89FEDA6
:100910004C0B5AEC105B2A46534603F005F95A4635
:100920004B465C464E4603F0FFF89FED470B57ECF5
:10093000109B4A463B4602F0D3FD8346D8F864003C
:10094000CDF81080884603F04CF82A46534603F051
:10095000EBF802460B462046314603F0E5F85A46CE
:10096000434603F0E1F84A463B46BA4602F0B8FD7A
:1009700005460F46DDE90010DDE9023203F0D4F848
:1009800004460E46584641462A463B4603F0CCF8FC
:1009900002460B462046314603F0C6F80746059846
:1009A0000D4603F01EF802460B463846294603F072
:1009B000BBF89FED270B53EC102B03F0B5F84A461C
:1009C000534602F08DFD02460B463846294603F099
:1009D000ABF89FED219B054653EC192B0E4641ECDD
:1009E000180B03F0A9FB88B99FED1DAB284653EC0B
:1009F0001A2B314603F0A7FBB0EE489AF0EE689A46
:100A0000002804BFB0EE4A9AF0EE6A9A049880ED8E
:100A1000269B06B0BDEC068B01B0BDE8F08F00BF91
:100A20000000000000C0F2C000000000000010BF85
:100A300000000000000050C0000000000000F03E78
:100A4000000000000000503E000000000000F03FE9
:100A5000000000000000C0BE00000000000059407F
:100A600000000000000000002DE9F04F81B02DEDE6
:100A7000068B86B08146806E02F0B3FF9FEDA80B17
:100A800053EC102B03F050F89FEDA70B53EC102BF9
:100A900002F026FD8346B9F94000B9F93E808A4646
:100AA00002F09FFF02460B465846514603F03CF8C1
:100AB00002460B465846514603F036F89FED9C0B14
:100AC00054EC106B3246234603F02EF805464046A0
:100AD0000F4602F086FF5A46534603F025F82A4691
:100AE0003B4602F0FDFC3246234603F01DF89FED25
:100AF000920B56EC107B3A46334603F015F89FED07
:100B0000900B53EC102B02F0EBFC0446B9F83C00C0
:100B10000D4602F07DFF02460B462046294603F0B3
:100B200003F89FED8B0B044653EC102B0D4603F09E
:100B300011FB002840F0DE80B9F94200B9F94810F5
:100B40000395B9F944500294B9F94640059102F071
:100B500048FFCDE90010284602F043FF02460B464D
:100B60005846514602F0E0FF8046CDF81090894685
:100B7000584651465A46534602F0D6FF054620468F
:100B8000B2460E4602F02DFF02460B46284631467D
:100B900002F0CAFF3A465346BB4602F0C5FF044680
:100BA0000D464046494642464B46DDF8109002F05D
:100BB00097FC22462B4602F093FC9FED670B53EC0B
:100BC000102B02F0B1FF9FED660B04460D46DDE9E8
:100BD000001053EC102B02F0A7FF22462B4602F028
:100BE0007FFC0446D9F874000D4602F011FF9FED1A
:100BF0005E0B02460B4651EC100B03F0A1F99FED82
:100C00005C0B06460F4653EC102B2046294602F09B
:100C10008BFF02460B463046394602F061FC9FEDE1
:100C2000560B53EC102B02F07FFFDDE9022302F09C
:100C300013FD0546B9F94C000E4602F0D2FE0246FD
:100C40000B462846314602F06FFF02460B46284607
:100C5000314602F069FF9FED4A0B53EC102B02F076
:100C600063FF0746B9F94A000C4602F0BAFE024695
:100C70000B462846314602F057FF5A46534602F0CB
:100C800053FF3A46234602F02BFC044605980F46D4
:100C900002F0A7FE02460B462046394602F020FC31
:100CA0009FED390B53EC102B02F03EFF02460B4632
:100CB0002846314602F014FC9FED239B044653EC7A
:100CC000192B0D4641EC180B03F04BFAA0B99FED20
:100CD00030AB204653EC1A2B294603F03BFAB0EE1A
:100CE000489AF0EE689A002804BFB0EE4A9AF0EEF7
:100CF0006A9A01E09FED149B9FED270B51EC190BB5
:100D000053EC102B02F0A8FC41EC100B89ED220BE8
:100D100006B0BDEC068B01B0BDE8F08F00BF00BF90
:100D2000000000000000E03F000000000040EFC0B5
:100D3000000000000000C03E000000000000003F76
:100D4000000000000000F03F00000000004CDD400B
:100D50000000000000000000000000000000D0BF04
:100D6000000000000000F0C0000000000000304162
:100D7000000000000000303F00000000006AB840A2
:100D8000000000000000003E000000000000B03F36
:100D90000000000000DBFA400000000000005940A5
:100DA0002DE9F04F81B02DED028B82B08246D0E963
:100DB0000C59806B0190DAF8780002F029FE9FED63
:100DC000460B834653EC102B884602F0ADFE0646D8
:100DD00028460C4602F005FE9FED410B074653ECFA
:100DE000102B0D4602F0A0FE02460B46304621466F
:100DF00002F076FB044648460E4602F0F2FD02463B
:100E00000B462046314602F08FFE9FED370B8146A0
:100E1000009153EC102B5846414602F085FE9FEDA1
:100E2000340B06460C4653EC102B3846294602F08C
:100E30007BFE02460B463046214602F051FB02463D
:100E40000B4602F071FE044601980D4602F0C9FD02
:100E500002460B462046294602F066FE0B460099E4
:100E60000246484602F03CFB04460D4602F08AFD6D
:100E70009FED210BCAF8680053EC102B2046294641
:100E800002F0EAFB9FED1E8B41EC100B53EC182B8C
:100E900005460E468AED200B03F063F940B18AED5A
:100EA000208B02B0BDEC028B01B0BDE8F08F00BF1B
:100EB0009FED158B284653EC182B314603F04AF969
:100EC000002808BF8AED208B02B0BDEC028B01B078
:100ED000BDE8F08F00BF00BF000000000000103F21
:100EE00000000000000050BF000000000000E03ED5
:100EF00000000000000020BF000000000000B4401F
:100F000000000000000044C0000000000040554008
:100F10002DE9F0410446F220022103220123022799
:100F20004FF00308012600F035F9F52004210322D3
:100F30000423E6722672042500F02CF9F52007211F
:100F4000032206232573062500F024F9F420072147
:100F500003220223657300F01DF9F420042103220B
:100F600005236772A671052500F014F9F42001210C
:100F700002220323A572E67100F00CF984F80580C3
:100F8000BDE8F0810000000010B5044600F048F80C
:100F90002046FFF705FF2046FFF766FD2046FFF7D6
:100FA0005FFC94ED220B9FED141B51EC100B53ECE6
:100FB000112B02F0B9FD9FED120B53EC102B02F038
:100FC0004BFB41EC100B9FED101B01F039FB53EC78
:100FD000102B9FED0F0B51EC100B02F0B1FF9FEDAA
:100FE0000E0B53EC102B02F037FB41EC100B84ED91
:100FF000240B10BD00BF00BF0000000000005940DE
:1010000000000000D0BCF8404A2DEE7D3659C83FA4
:10101000000000000000F03FDF55225749A7F73ECF
:10102000F0B583B040F6000504464FF6F370C4F601
:101030000005ADF80A0028464FF4005100220027B1
:1010400000F054FA40F210104FF0FF36C2F20000E8
:101050000DF10A0102AA0223009600F029FF0646BC
:1010600028464FF40051012200F040FA16B1E77013
:1010700006E000BF9DF80900C0F3C000E07020BB8F
:1010800004F16C01F7200822FFF734FB94F86D108F
:1010900094F86C0094F86E20090141EA003002F0E7
:1010A0000F0194F8702094F86F300844110194F8FF
:1010B000712041EA0331B4F8723002F00F0211449A
:1010C0001A0404F1740312BA07C303B0F0BD0000A0
:1010D0002DE9F04F83B040F6000540F210160446AB
:1010E000C4F600054FF0FF38C2F200064FF6F37960
:1010F0000DF10A0A0DF1080B4BF26060ADF8060025
:1011000028464FF40051002200F0F0F930460DF16E
:10111000060101AA0223CDF8008000F0C9FE00BF3D
:10112000304600F019FE0128FAD128464FF400514C
:10113000012200F0DBF9042000F0D6F828464FF435
:1011400000510022ADF80A9000F0D0F93046514627
:101150005A460223CDF8008000F0AAFE0746284632
:101160004FF40051012200F0C1F95FB99DF8090068
:1011700010F001002071BFD10020607003B0BDE805
:10118000F08F00BF002020710020607003B0BDE828
:10119000F08F00002DE9F04784B007294FF00106D9
:1011A0002DD81746082A2AD8054640F6000840F0F0
:1011B0008000C4F600088DF80E00FF200C468DF864
:1011C0000F0040464FF400510022994600F08EF97E
:1011D00040F210104FF0FF3AC2F200000DF10E0184
:1011E00003AA0223CDF800A000F062FE06464046A6
:1011F0004FF40051012200F079F92EB1012630465A
:1012000004B0BDE8F08700BF0AFA07F1E21B9DF8C1
:101210000D00C9430132914009FA02F20A408843A5
:10122000104405F07F018DF80A108DF80B00404640
:101230004FF40051002200F059F940F21014C2F2AC
:1012400000040DF10A0102AA20460223CDF800A0F5
:1012500000F02EFE064600BF204600F07DFD01286E
:10126000FAD140464FF40051012200F03FF93046D8
:1012700004B0BDE8F087000070B582B004460320DA
:1012800000F032F82046FFF723FF2046FFF776FAFA
:1012900040F600054FF6D070C4F60005ADF8060024
:1012A00028464FF40051002200F020F940F21010BF
:1012B0004FF0FF36C2F200000DF1060101AA022331
:1012C000009600F0F5FD064628464FF40051012235
:1012D00000F00CF916B102B070BD00BF9DF805001A
:1012E000A07002B070BD0000B0B5044600F004F973
:1012F000054640F20000C2F200000078611C18BFF1
:10130000044400BF00F0F8F8401BA042FAD3B0BD7F
:101310002DE9F04F84B08E4641F20002C4F600027F
:10132000DEF8004005219042019008BF0421002C06
:10133000009100F0D7800198002500F138424FEA73
:10134000B2230098012700264FF00008042B38BF75
:1013500018460090CDF808E00EE000BFDEF800402F
:1013600008F1010834FA07F106F1020607F1010756
:1013700005F1040500F0B680A7F1010A012000FA8A
:101380000AF314EA0309E9D0DEF804C00CF0030BF9
:10139000ABF10104012C17D801987446816803222F
:1013A000E468B2409143B4402143816041684FEA10
:1013B000480E9943CCF3001303FA0AF30446D043D2
:1013C000194361600CE000BF0321B140019CC84398
:1013D000BBF1030FB64603D1B6464FF0030B23E033
:1013E000E168029A01409368BBF1020F03FA0EF321
:1013F00041EA0301E16017D16FF0030101EA5A01EC
:10140000214405F01C040F23D1F820C003FA04FB8B
:1014100013692CEA0B0CA34043EA0C03019C0B62FA
:10142000D2F804C00CF0030B21680BFA0EF2014055
:1014300011432160DDF808E01CF4403F8ED041F2FA
:101440001800C4F20200016840F2004C41F00101B2
:1014500001600168C4F2010C01F0010103910399DC
:101460002AF003014FF6084A6144CFF6FF7A05F0EF
:101470000C030F2051F80A2000FA03F40098A2434D
:1014800000FA03F31A4341F80A20DCF80010DEF8F2
:10149000042041EA0903D40358BF21EA0903CCF828
:1014A0000030DCF80410940341EA090358BF21EA34
:1014B0000903CCF80430DCF8081040F20C4041EA93
:1014C0000903D40258BF21EA0903CCF80830C4F25A
:1014D00001000168920241EA090358BF21EA0903A9
:1014E00003603BE704B0BDE8F08F00001823002A3A
:1014F00008BF2823C150704740F27410C2F20000A8
:101500000068704740F2000040F27411C2F200001F
:10151000C2F2000100780A681044086070470000B9
:1015200080B542F20000C4F20200016841F01001EF
:101530000160032000F072F80F2000F005F800F0C1
:1015400027F8002080BD000070B540F20006C2F20E
:10155000000640F208013278C2F200014FF47A73BB
:101560000968B3FBF2F20446B1FBF2F1084600F061
:1015700011FE0F2C4FF0010508D838B94FF0FF309D
:1015800021460022002500F01DF87460284670BD39
:1015900082B041F21800C4F20200016841F001017A
:1015A0000160016801F0010101910199416841F078
:1015B00080514160406800F080500090009802B077
:1015C0007047000010B54EF60C5CCEF2000CDCF853
:1015D0000030C3F3022E8EF00704042C28BF04242D
:1015E000BEF103034FF0FF3E0EFA04F438BF0023B0
:1015F000A14399400EFA03F39A43114300F00F02FE
:10160000043A624409010C3200F16043B0F1FF3F3B
:10161000C8BF03F56442117010BD00004EF60C51B6
:10162000CEF200010A684FF6FF031A4060F30A2267
:1016300042F0806040F0FD70086070472DE9F04195
:1016400082B00446807841F23006C007C4F2020638
:1016500056D056F8140C10F080580BD156F8140CD4
:1016600040F0805046F8140C56F8140C00F08050EE
:101670000190019847F20007C4F200073868C005DE
:1016800012D4386840F480703860FFF735FF0546A3
:101690003868C00508D4FFF72FFF401B6428F7D92E
:1016A000032002B0BDE8F08156F8100C10F4407031
:1016B00015D0616801F44071884210D056F8100CC2
:1016C00040F24042C4F24222012320F440711360F0
:1016D0000023C007136046F8101C40F0A38056F8A2
:1016E000100C616820F440700843B8F1000F46F810
:1016F000100C05D156F8140C20F0805046F8140C4C
:101700002068C1071CD1810722D4410728D4810653
:101710002ED4810334D441063CD4010742D4C106FF
:1017200048D481054ED4010656D4C1055ED4C10407
:1017300066D480046CD4002002B0BDE8F08100BF04
:101740003168A26821F00301114331608107DCD5C3
:101750003168E26821F44031114331604107D6D548
:101760003168226921F44021114331608106D0D5CE
:101770003168E26921F01001114331608103CAD55B
:1017800056F82C1CA26B21F48001114346F82C1C46
:101790004106C2D53168226A21F02001114331602F
:1017A0000107BCD53168626921F4401111433160F1
:1017B000C106B6D53168A26921F4400111433160F8
:1017C0008105B0D556F82C1CE26A21F400011143C2
:1017D00046F82C1C0106A8D556F8041C626A21F4B0
:1017E000F871114346F8041CC105A0D556F8041C35
:1017F000A26A21F47851114346F8041CC10498D51B
:101800003168226B21F4807111433160800492D5DC
:101810003068616B20F4007008433060002002B033
:10182000BDE8F081FFF768FE054641F2883700BF4A
:1018300056F8100C80073FF552AFFFF75DFE401BD6
:10184000B8424FF00300F3D9E9E700002DE9F04377
:1018500081B0002877D042F20008C4F202080446A2
:10186000D8F800000D4600F0070088420CD2D8F8E6
:10187000000020F007002843C8F80000D8F8000056
:1018800000F00700A8425ED1206841F204098107F8
:10189000C4F2020907D5D9F80010A26821F0F001BE
:1018A0001143C9F80010C00744D1D8F8000000F077
:1018B0000700A8420CD9D8F8000020F00700284300
:1018C000C8F80000D8F8000000F00700A8423AD19C
:1018D0002068410707D5D9F80010E26821F4E061DB
:1018E0001143C9F80010000708D5D9F80000216994
:1018F00020F4605040EAC100C9F80000D9F8002087
:1019000002F00C00082841F20020C0F27A0051D108
:1019100044F22033C2F38341C0F60003595CD9F886
:101920002830D2033CD440F60010C0F23D004843BA
:1019300040E000BF606802280AD001282AD159F887
:10194000041C890308D4012001B0BDE8F08300BF66
:1019500059F8041C8901F6D5D9F8001021F00301CB
:101960000843C9F80000FFF7C7FD064641F2883773
:10197000D9F80000616800F00C00B0EB810F94D042
:10198000FFF7BAFD801BB842F2D9032001B0BDE8D1
:10199000F08300BF59F8041C8907D4D5DCE700BFE9
:1019A00003F00F0244F23033C0F600039A5CB0FB40
:1019B000F2F04843D9F8001044F21032C1F3031199
:1019C000C0F60002515C40F2080220FA01F140F238
:1019D0000400C2F200000068C2F200021160FFF7CA
:1019E000B3FD002001B0BDE8F08300002DE9F04117
:1019F00082B0002850D00446007841F20006C007AB
:101A0000C4F202060AD0706800F00C00042840F00E
:101A100085803068800301D56068E8B3207880074E
:101A20001AD5706810F00C0F09D0706800F00C0027
:101A3000082840F0A5807068C00300F1A1803068DC
:101A4000800702D52069012826D13068616920F01D
:101A5000F80040EAC10030602078000720D42078E8
:101A6000400735D4E56995B1706800F00C0008288E
:101A700040F0C280012D0FD07068216A00F48032DE
:101A80008A4209D1616A00F47010884204D10020B2
:101A900002B0BDE8F08100BF012002B0BDE8F081D6
:101AA000A069002800F094800020C4F242200121A7
:101AB000C0F88014FFF720FD054600BF706A80075C
:101AC000CDD4FFF719FD401B0228F7D91CE100BF58
:101AD000F06910F0805808D1F06940F08050F06152
:101AE000F06900F080500190019847F20007C4F2BD
:101AF00000073868C00559D4386840F480703860F1
:101B0000FFF7FAFC054600BF3868C0054ED4FFF762
:101B1000F3FC401B6428F7D9F6E000BF706800F0C2
:101B20000C00082803D17068C0033FF572AF6068ED
:101B3000B0F5A02F00F09480B0F5803F00F09480C5
:101B4000002840F09580306820F4803030603068A4
:101B500020F480203060F06AA16820F00F00084374
:101B6000F062FFF7C9FC0546306880037FF556AF89
:101B7000FFF7C2FC401B64284FF00300F4D987E74D
:101B80002069002840F20000C4F2422056D0012112
:101B90000160FFF7B1FC0546306880073FF555AF9F
:101BA000FFF7AAFC401B0228F6D9ADE0E068002848
:101BB00000F07A80052800F09180012800F09280E2
:101BC000306A20F001003062306A20F004008CE0BE
:101BD0000020C4F242200021C0F88014FFF78CFCE2
:101BE000054600BF706A80077FF539AFFFF784FCB8
:101BF000401B0228F6D987E00027C4F242270020C4
:101C00003866FFF779FC022D05460BD1306880015C
:101C100040F18880FFF770FC401B02284FF0030062
:101C2000F4D935E7306880017FF531AFFFF764FC08
:101C3000401B02284FF00300F4D929E7002101607E
:101C4000FFF75AFC054600BF306880077FF504AFF8
:101C5000FFF752FC401B02284FF00300F4D917E7AE
:101C6000306840F480203060306840F4803006E016
:101C7000306820F480303060306820F4802030609C
:101C8000F06AA16820F00F000843F062FFF734FC0F
:101C9000054600BF306880033FF5C0AEFFF72CFC5F
:101CA000401B6428F6D92FE0306A20F00100306232
:101CB000306A20F004003062FFF71EFC054641F256
:101CC000883700BF306A800722D5FFF715FC401B1C
:101CD000B8424FF00300F5D9DAE600BF306A40F0B1
:101CE00004003062306A40F001003062FFF704FC0B
:101CF000054641F2883700BF306A800708D4FFF7F5
:101D0000FBFB401BB842F7D9032002B0BDE8F081CD
:101D1000B8F1000F7FF4A6AEF06920F08050F061BA
:101D2000A0E600BF7068D4E9082120F474100843CD
:101D30001043706001203866FFF7DEFB044600BFE9
:101D4000306880013FF5A3AEFFF7D6FB001B0228E9
:101D50004FF00300F4D99BE690F85D007047000057
:101D6000002804BF01207047B0B50446406A28B17E
:101D70000020206104F1140006E000BF6068B0F5A7
:101D8000827F03D004F11C00002101600025A562C0
:101D900094F85D0020B9204684F85C5000F052F8B9
:101DA000022084F85D002068D4F80CE00268BEF5DB
:101DB000E06F22F0400202604EF4006298BF0125FD
:101DC000B2F5706F1CBF0023A3624FEA053CD4E953
:101DD0000135D4E9042103F4827305F404452B444E
:101DE00002F002021A44A36901F00101E5691144FD
:101DF00003F40072114405F03802256A114405F01D
:101E00008002A56A114405F40052114301600421C7
:101E1000626A0EF4706501EA1341636B45EA0C05D2
:101E200002F01002294303F00803114319434160F3
:101E3000C16921F40061C16100200121206684F89C
:101E40005D10B0BD80B586B0006843F20001C4F2F9
:101E50000101884202D006B080BD00BF41F21400EB
:101E6000C4F20200416841F480514160416801F4CC
:101E7000805101910199016841F48021016000685D
:101E800001A900F4802001900198382001900220DF
:101E9000029000200390032004900520059040F25A
:101EA0000040C4F60000FFF733FA06B080BD000022
:101EB0002DE9F04381B0044690F85C00012803D17D
:101EC000022001B0BDE8F08301201E4615460F46F2
:101ED00084F85C00FFF710FB94F85D10814601293F
:101EE00040F0B080002F4FF0010018BF002D00F02F
:101EF0004681002E00F0438194F85D0004281CBF49
:101F0000052084F85D00002020662564A4F8466062
:101F1000A4F84460A763E687C4E913002068A68795
:101F2000E1684268B1F5E06F22F48052134698BF31
:101F300003F58053012E88BF1346436002685206A2
:101F400003D4026842F0400202606268731EB2FA73
:101F500082F2B3FA83F3DDF8208052095B09B1F510
:101F6000E06F43EA02017DD931B137F8021BC1604D
:101F7000A763E08F0138E087012518F1010035D112
:101F800002E000BFFFF7B8FAE08F20B9B4F84600CE
:101F9000002800F0D7802068816889070CD5E18F80
:101FA00051B1012D08D1A16B002531F8022BC2607F
:101FB000A163E18F0139E1878168C907E2D0B4F8F4
:101FC00046100029DED0C068216C012521F8020BE3
:101FD0002164B4F846000138A4F84600D2E700BFF7
:101FE000FFF78AFAA0EB0900404545D2E08F20B9FF
:101FF000B4F84600002800F0A580206881688907B1
:102000000CD5E18F51B1012D08D1A16B002531F81C
:10201000022BC260A163E18F0139E1878168C907A2
:10202000DED0B4F846100029DAD0C068216C012552
:1020300021F8020B2164B4F846000138A4F84600E8
:10204000CEE700BF6068B0F5827F09D1A0680028A4
:102050004FF0020008BF042940F0918042E700BF22
:1020600002208CE099B1E18F02294FF6FE7105D371
:1020700037F8022BC26006E0032080E03A78013195
:102080000273A06B471CA763E08F0844E08701261A
:1020900008F10105E08F18B9B4F84600002851D0C6
:1020A0002068816889071AD5E18FC1B1012E16D148
:1020B000E18F022908D3A16B31F8022BC260A16322
:1020C000E18F023909E000BFA16B09780173A16BB0
:1020D00020680131A163E18F01390026E187816821
:1020E000C90725D0B4F8461011B3B4F84610022938
:1020F00012D3C168226C22F8021B2264B4F8461085
:102100000239A4F84610B4F8461001290FD84168E6
:1021100041F4805141600AE0007B216C0870206C22
:1021200001302064B4F846000138A4F846000126C6
:10213000FFF7E2F9002DADD0A0EB09004045A9D38F
:1021400003201CE020464FF4C05142464B4600F0AD
:10215000CBF868B9204641464A4600F089F938B9BB
:1021600020464FF4C06142464B4600F0BDF878B1BE
:10217000206E40F0200020662020206601200121F2
:1021800084F85D10002184F85C1001B0BDE8F08394
:102190000020F4E7411E0020B0EB116F1CBF0120AE
:1021A00070474EF21002CEF2000251604EF62351FB
:1021B000CEF20001F0230B70072190601160704790
:1021C000FEE700002DE9F04387B0002741F214003C
:1021D0000697C4F20200016840F2004841F4002171
:1021E00001600168C4F6000801F400210191019921
:1021F000016808F5806541F48001016001680122F1
:1022000001F480010191019901684FF4005641F4F5
:10221000003101600168012401F40031019101994C
:10222000016841F48021016000684FF4005100F41E
:102230008020019001982846FFF758F94046402138
:1022400000224FF04009FFF751F9CDE9026402AED8
:1022500028463146CDE90447FFF75AF84FF4847019
:10226000CDE902074FF0904031460497FFF750F850
:1022700040463146CDE90294CDE90474FFF748F8B1
:1022800007B0BDE8F083000070B540F2101043F2D3
:102290000001C2F20000C4F201014FF48272002377
:1022A0004FF4E06C4FF0020E012480E80E5000F174
:1022B00014014FF40075102670C10721C0E90833DE
:1022C000C0E90A31C0E90C33FFF74AFD002808BF16
:1022D00070BDBDE87040FEF707BA0000FEE70000E1
:1022E000FEE70000704700002DE9F04782B00026AD
:1022F0001F4690460D4681468DF80360FFF7FCF8B7
:10230000381A00EB0807FFF7F7F840F20801C2F2AD
:102310000001096823225143090DD9F8004079438F
:102320000191A168294271D0824618F1010037D08D
:10233000B5F5C06F1CD100BF207B8DF803009DF860
:102340000300FFF7D9F8A0EB0A00B84262D2019867
:1023500001990028A1F101010191D9F800108968C3
:1023600008BF074611F4C06FE6D100264EE000BF5B
:10237000FFF7C2F8A0EB0A00B8424BD201980199CE
:102380000028A1F101010191D9F80010896808BF66
:1023900007462942ECD10026304602B0BDE8F0875E
:1023A0000026B5F5C06F25D1207B8DF803009DF880
:1023B0000300A06810F4C06FEDD0207B8DF80300FF
:1023C0009DF80300A06810F4C06FE4D0207B8DF866
:1023D00003009DF80300A06810F4C06FDBD0207BE1
:1023E0008DF803009DF80300A06810F4C06FDBD1E6
:1023F0000CE000BFA0682842CDD0A0682842CAD017
:10240000A0682842C7D0A0682842F3D1304602B065
:10241000BDE8F087D9E900014268B1F5827F22F07A
:10242000E00242600BD1D9F80810B1F5004F02D09C
:10243000B1F5806F03D1016821F040010160D9F846
:102440002810B1F5005F07D1016821F40051016047
:10245000016841F400510160012089F85D0000200D
:1024600089F85C000326304602B0BDE8F087000022
:10247000F0B581B015460E460446FFF73DF8281A20
:102480008719FFF739F840F20801C2F20001096824
:10249000C1F3CB317943009121688A68120622D5B5
:1024A0000546701C15D000BFFFF726F8401BB84248
:1024B0001CD2009800990028A1F101010091216827
:1024C000896808BF07460806EED40CE08868000655
:1024D00009D58868000606D58868000644BF886864
:1024E0005FEA0060F2D4002001B0F0BDD4E9000141
:1024F0004268B1F5827F22F0E00242600AD1A16811
:10250000B1F5004F02D0B1F5806F03D1016821F021
:1025100040010160A16AB1F5005F07D1016821F4B3
:1025200000510160016841F400510160012084F80C
:102530005D00002084F85C00032001B0F0BD0000C5
:1025400070470000FEF7DEBF4EF68850CEF2000066
:10255000016841F47001016070470000FEE700006F
:102560009EB0FEF7DDFF6846002404303821CDE937
:102570001944CDE91744FDF72AFF01201490189063
:102580004FF4E0104FF4803102251D9014A8CDE9DE
:102590001514CDE91B51FFF729FA28B1EFF310808C
:1025A00072B600BFFEE700BF0F20CDE90F054FF464
:1025B0008060CDE912040FA802211194FFF746F9BB
:1025C00020B1EFF3108072B6FEE700BF202000902C
:1025D000102007906846FFF731F828B1EFF310801C
:1025E00072B600BFFEE700BFFFF7ECFDFFF74CFE41
:1025F00040F27004C2F200042046FEF73DFE204681
:10260000FEF786FC2046FEF7BFFCFBE703B401980B
:102610004100009850EAC12018BF04204A0D18BF9D
:1026200040F0010040F2FF72B2EB515F08BF40F092
:102630000200012808BF052002B07047000000001A
:102640002DE9F04D2DED040B2DED0E8B94B0DDE951
:102650002350259CDDF888A025F0004624F0004892
:10266000BAF1000F14BF0121002101EB4502FC4922
:1026700053184A1093422AD3002814BF0123002381
:1026800003EB44030B44F7498B4220D358EA000183
:102690009FEDF5AB76D0DFF8D8B35D4503D1BAF145
:1026A000000F05D188E0BAF1000F08BF002100D06B
:1026B000012101EB450111F5001F08D8002814BFC6
:1026C0000121002101EB440111F5001F0BD99DED03
:1026D000241B9DED220B14B0BDEC0E8B04B0BDE8A5
:1026E000F04D00F071BE0027002DBCBFE1498845C8
:1026F00021DAE1498845A8BF02271CDAC3451ADC64
:10270000DE4901EB2851142908DDC1F1340220FA19
:1027100002F101FA02F282420DD108E058B9C1F18A
:10272000140228FA02F101FA02F2424503D101F043
:102730000101C1F1020756EA0A0124D1002C22DA74
:10274000002D18BF022F01D0012F0AD00220FDF763
:10275000C0FE14B0BDEC0E8B04B0BDE8F04D00F02F
:102760001BBE0220FDF7B5FE00F016FE51EC100B6B
:1027700000F0A9FE41EC100B14B0BDEC0E8B04B0C0
:10278000BDE8F08D18E09FEDBE9B9FEDBF8B00284C
:1027900071D1B848804522D105F1804010F58010F4
:1027A00008BFBAF1000F07D0B3450ADC002CA8BF60
:1027B0009DED240BE0DA0DE0B0EE4A0AF0EE6A0A75
:1027C000DAE7002C06DA9DED240B51EC100B00F03B
:1027D0007AFE6FE0AE48784490ED000BCCE7D84528
:1027E0004DD1002C48DA2EB186423AD1BAF1000F11
:1027F00042D126E0BAF1000F13D00220FDF769FEA6
:1028000000F0FEFD8DED020B9DED220B8DED000B1A
:1028100010EE900A039961F31E0003909DED020BE8
:10282000AAE78DED029B9DED220B19EE901A10EE9A
:10283000900A8DED000B61F31E0003909DED020BDD
:102840009AE78DED028B9DED220B18EE901A10EE9B
:10285000900A8DED000B61F31E0003909DED020BBD
:102860008AE709DA9DED220B51EC1A0B53EC102B81
:1028700000F0F2FE1EE020E09DED220B7CE7864298
:102880001BDAB4F1804F0DD0A4F10050B0F1FF502D
:1028900013D1002D11DB9DED220B51EC100B00F03C
:1028A000DBFD07E09DED220B53EC102B51EC100BE0
:1028B00000F0CABC41EC100B5EE79DED220B51EC21
:1028C000100B00F0BDFDBAF1000FCDE90A0142D1B5
:1028D0009FED710B46B3A6F1E040B0F17F600CD0E4
:1028E0005E4538D1002D00DAA7B3022F0CBF0120BE
:1028F0004FF0FF3001F075F8DCE7002D01DD002C12
:102900000DDA002D01DD002C1FDB002D16DA002C66
:1029100014DB012F08BF9FED620B3FF42DAFB0EE2B
:10292000490AF0EE690A27E7022F18BF002D0CD0E4
:10293000012F0AD1002DFFF61FAF06E0002DB8BF12
:10294000002C08DA012F3FF417AFB0EE480AF0EE82
:10295000680A11E71BE0012000EBE57050EA07016F
:1029600015D0791EB0EE4A8AF0EE6A8A084308BF95
:102970009FED4D8B4E480025804570DD4D494E48FA
:10298000884514DDB0420DDB002C19DB2FE001205F
:10299000FDF79FFD14B0BDEC0E8B04B0BDE8F04D0B
:1029A00000F01EBDB34502DC002C09DC1FE08642AE
:1029B00002DA002C1BDA03E05E452BDD002C16DD6D
:1029C0000220FDF786FD00F01BFD8DED020B53ECA0
:1029D000192B51EC180B01F0A7F8CDE90001039970
:1029E000019861F31E0003909DED020BC4E60220E6
:1029F000FDF76FFD00F014FD10EE901A18EE900A2E
:102A00008DED020B8DED008B61F31E0003909DEDAB
:102A1000020BB1E69DED0A0B53EC1A2B51EC100B97
:102A200001F08EFA9FED260BCDE90A0153EC102B35
:102A30009DED0A0B51EC100B01F076F89FED221B77
:102A400053EC112B01F0A4F99DED0A1B53EC112B53
:102A500001F06AF89FED1E1B53EC112B3CE08CE05B
:102A6000FFFF1F00FFFF0F00000000000000F03F0D
:102A70000000F03F0000F07F0000404301FCFFFF3A
:102A8000000000000000F07F0000000000000000D7
:102A90002E1B00000000000000000000000000806D
:102AA000000000000000F0FF000000000000F0BF88
:102AB0000000E0410000F043FFFFEF3F0000000096
:102AC000000000000000D03F555555555555D53FE5
:102AD000000000000000E03F01F05AF99DED0A0BF4
:102AE00041EC190B53EC102B51EC100B01F01CF8BE
:102AF00053EC192B01F018F89DED0A0B41EC1B0B60
:102B000053EC102B9FEDFE0B51EC100B01F00CF869
:102B100041EC190B9FEDFC0B51EC1B0B53EC102BF4
:102B200001F002F841EC1B0B9FEDF90B53EC102B5D
:102B30009DED0A0B51EC100B00F0F6FF53EC1B2B34
:102B400001F0FEF941EC1B0B51EC190B53EC1B2B64
:102B500000F0C6FC0490CDE904519DED040B53EC4C
:102B6000192B51EC100B01F0EBF953EC1B2B01F07E
:102B70000FF941EC100B00F0A9B90020B6F5801F49
:102B80000EDA9FEDE50B53EC102B9DED0A0B51EC8B
:102B9000100B00F0C9FFCDE90A016FF034000E46BA
:102BA00000EB2650A0F2FF37C6F31300DC4940F0DB
:102BB0007F6646F040568842D8BF002408DDD949D8
:102BC0008142C8BF012403DC0024A6F580167F1CC7
:102BD000D548784400EBC4080B9698ED000B53ECF5
:102BE000102B9DED0A0B51EC100B01F0A9F998ED9B
:102BF000000B41EC1B0B53EC102B9DED0A0B51EC21
:102C0000100B00F06DFC41EC100B51EC1A0B53EC67
:102C1000102B00F021FD41EC1C0B51EC1B0B53EC75
:102C20001C2B00F081FF41EC190BC0488DED0E9B71
:102C300078440E9590ED000B4FF0005040EA66008E
:102C400000EB84408DED120B00F50020139098ED01
:102C5000000B53EC102B9DED120B51EC100B01F0FF
:102C60006FF99DED0A1B53EC112B01F091F841EC2B
:102C7000100B53EC102B9DED0E0B51EC100B00F0D4
:102C800053FF9DED120B41EC1D0B53EC102B9DEDF2
:102C90000E0B51EC100B00F047FF53EC1B2B01F017
:102CA00077F853EC1D2B01F04BF953EC1C2B00F083
:102CB0003BFF41EC1C0B53EC192B51EC190B00F0B2
:102CC00033FF41EC1B0B9A480621B0EE4B0AF0EEA5
:102CD0006B0A784400F0E4FAB0EE401AF0EE601AA5
:102CE000B0EE41DAF0EE61DA53EC1B2B51EC1B0B2A
:102CF00000F01AFF53EC1D2B00F016FF9DED0E0B9C
:102D000041EC1B0B53EC192B51EC100B00F0E8FBC2
:102D100053EC1C2B00F008FF53EC1B2B00F0E0FBE6
:102D20009DED0E0B41EC1B0B53EC102B51EC100BDB
:102D300000F0FAFE41EC1D0B53EC1D2B9FED7EEBDA
:102D400051EC1E0B00F0CCFB53EC1B2B00F0C8FB2E
:102D50001290CDE912519DED120B53EC1E2B51EC4C
:102D6000100B01F0EDF853EC1D2B01F0E9F853ECDA
:102D70001B2B01F00DF89DED120B41EC1D0B53ECDC
:102D8000102B9DED0E0B51EC100B00F0CDFE41EC25
:102D90001B0B53EC192B51EC1D0B00F0C5FE9DEDE8
:102DA000120B41EC190B53EC102B51EC1C0B00F0E7
:102DB000BBFE53EC192B00F093FB41EC190B51ECCB
:102DC0001B0B53EC192B00F08BFB0490CDE9045145
:102DD0009DED040B53EC1B2B51EC100B01F0B0F8E4
:102DE00053EC192B00F0D4FF9DED040B41EC190BB3
:102DF00053EC102B9FED520B51EC100B00F094FE96
:102E000041EC1B0B9FED500B51EC190B53EC102BAD
:102E100000F08AFE9DED040B41EC190B53EC102BD6
:102E20009FED4B0B51EC100B00F07EFE53EC192B79
:102E300000F056FB41EC100B4748784400EBC4000F
:102E400090ED001B51EC100B53EC112B00F048FBE4
:102E500041EC190B384600F0C4FDCDE90A0153ECF2
:102E6000192B51EC1B0B00F03BFB41EC100B3B48CA
:102E7000784400EBC40451EC100B94ED001B53ECB0
:102E8000112B00F02DFB9DED0A1B53EC112B00F0D4
:102E900027FB0490CDE904519DED0A0B53EC102B58
:102EA0009DED040B51EC100B01F04AF894ED001B62
:102EB00053EC112B01F044F853EC1B2B01F040F8BC
:102EC00053EC192B00F064FF41EC100B9DED241B1B
:102ED00053EC102B8DED001B00959DED240B51EC58
:102EE000100B00F021FE9DED000B41EC190B53EC93
:102EF000102B9DED240B51EC100B01F021F82FE06D
:102F0000000000604715F73FFE822B654715F73F2D
:102F100044DF5DF80BAE543E00000000000040436B
:102F20008E9803007AB60B00AA160000D416000093
:102F3000DA1500000000000000000000000008405A
:102F4000000000E009C7EE3FFD033ADC09C7EE3F91
:102F5000F5015B14E02F3EBE621400001C1400005B
:102F60009DED041B53EC112B00F0DEFD53EC192BEF
:102F700000F0B6FA9DED040B41EC190B53EC102B4D
:102F80009DED000B51EC100B00F0CEFDCDE90401DE
:102F90009DED040B51EC190B53EC102B00F0A0FA33
:102FA000CDE902010C46AA498C422FDB611A084385
:102FB00018D19DED040B53EC102B9DED020B51EC41
:102FC000100B00F0BDFF41EC1B0B9FEDA30B51EC70
:102FD000190B53EC102B00F083FA53EC1B2B00F071
:102FE000A1FE2DD20220FDF774FA00F009FA10EECE
:102FF000901A18EE900A8DED020B8DED008B61F3A7
:103000001E0003909DED020BFFF7B6BB944A24F01F
:103010000041914214D39349214408437FF4E7AC23
:103020009DED040B53EC102B9DED020B51EC100B9E
:1030300000F086FF53EC192B00F074FE7FF6D7AC3E
:1030400024F000408849894A002601EB2051824241
:103050002BDA481C4FF4801121FA00F02044844AF6
:10306000C0F30A517A44A1F2FF3192ED000B814A7C
:103070008DED0A0BCA4020EA0202C0F3130040F4AF
:103080008010C1F1140120FA01F60B92002CB8BF98
:1030900076429DED0A0B53EC102B9DED040B51EC89
:1030A000100B00F04DFFCDE904019DED040B51EC38
:1030B000190B53EC102B00F013FA9FED6F0B0A90D5
:1030C000CDE90A5153EC102B9DED0A0B51EC100B7E
:1030D00000F02AFD41EC1B0B9FED690B53EC102B0C
:1030E0009DED0A0B51EC100B00F01EFD9DED040B45
:1030F00041EC1C0B53EC102B9DED0A0B51EC100B0B
:1031000000F01EFF53EC192B00F042FE9FED5E1BFA
:1031100053EC112B00F008FD53EC1C2B00F0E0F9F0
:1031200041EC190B51EC1B0B53EC192B00F0D8F9A7
:10313000CDE902019DED020B53EC1B2B51EC100B62
:1031400000F0FEFE53EC192B00F022FE9DED020B69
:1031500041EC190B53EC102B51EC100B00F0E4FC7C
:10316000CDE90A014A489DED0A0B0521784400F09B
:1031700097F89DED0A1B51EC100B53EC112B00F04E
:10318000D3FC9DED021B53EC112B00F001FECDE9A9
:1031900004019DED020B53EC192B51EC100B00F0C8
:1031A000C3FC53EC192B00F09BF99FED3B0B41EC5A
:1031B000190B53EC102B9DED040B51EC100B00F090
:1031C000BFFE9DED040B41EC1B0B53EC102B9DED52
:1031D000020B51EC100B00F0A7FC53EC1B2B00F082
:1031E0003BFA53EC192B00F0ABFE9DED021B53ECA8
:1031F000112B00F0A5FE53EC1A2B00F0C9FDCDE910
:10320000020101EB065001150029C8BF039015DC2F
:103210009DED020B324651EC100B00F0E8FFFFF77A
:10322000F5F9042808BF00F0FBF832469DED020BCB
:1032300051EC100B00F0DBFFCDE902019DED020B1C
:1032400051EC180B53EC102B00F06EFCFFF732BB67
:103250000000904000000000FE822B654715973C5F
:1032600000CC904000346F3F01FCFFFF0000E03FC6
:10327000A0120000FFFF0F0000000000432EE63FF9
:10328000396CA80C615C20BEEF39FAFE422EE63F95
:10329000701100000000000000000000000000406D
:1032A00070B504462DED028B4D1E00EBC500B0EE4F
:1032B000408AF0EE608A90ED000B35F0060017D0E2
:1032C00053EC182B51EC100B00F02EFC41EC100BC2
:1032D0006D1E04EBC50090ED001B51EC100B53EC80
:1032E000112B00F0FDF841EC100B35F00600E7D192
:1032F000022D36D0042D1CD0062D1CBFBDEC028B38
:1033000070BD53EC182B51EC100B00F00DFC94ED3C
:103310000A1B53EC112B00F0E3F853EC182B00F0D0
:1033200003FC94ED081B53EC112B00F0D9F841EC91
:10333000100B53EC182B51EC100B00F0F5FB94ED37
:10334000061B53EC112B00F0CBF853EC182B00F0BC
:10335000EBFB94ED040B53EC102B00F0C1F841ECA7
:10336000100B53EC182B51EC100B00F0DDFB94ED1F
:10337000021B53EC112B00F0B3F853EC182B00F0A8
:10338000D3FB94ED001B53EC112B00F0A9F8BDEC1E
:10339000028B41EC100B70BD9FED070B10B553EC89
:1033A000102B9FED070B51EC100B00F055F941EC81
:1033B000100B10BD00000000000000000000000025
:1033C000000000000000F03F10B553EC112B51EC51
:1033D000100B00F085F841EC100B10BD0000000050
:1033E0009FED050B10B553EC102B51EC100B00F0BA
:1033F00033F941EC100B10BD00000000000000008C
:103400009FED050B10B553EC102B51EC100B00F099
:103410008BFB41EC100B10BD0000000000000070A1
:103420009FED050B10B553EC102B51EC100B00F079
:103430007BFB41EC100B10BD0000000000000010F1
:1034400082B0CDE9000121F0004001909DED000B1C
:1034500002B051EC100B704700B52DED048B83B01A
:1034600041EC190B00F0A0FC41EC180B18EE100A0F
:1034700018EE901A8DED008B002818BF012008432C
:1034800020F00040C0F17F6000F1E040C00F14D098
:1034900019EE101A19EE900A8DED009B002918BF45
:1034A0000121084320F00040C0F17F6000F1E040BE
:1034B000C00F04BF0120FDF70CF851EC180B03B04E
:1034C000BDEC048B00BD81F00041704780F00040EE
:1034D000704721F00041704720F000407047000025
:1034E00010B591EA030F48BF83F0004300F1308527
:1034F000841A71EB030C05D2121943EB0C03001B69
:1035000061EB0C014FEA1154A4EB135CDFF81CE1F2
:103510001EEA430F18BF9EEA445F00F0748021EA60
:10352000045123EA0E0343F48013DCF1200E32D35E
:1035300022FA0CFE10EB0E0023FA0CFE41EB0E01FA
:10354000CCF1200E03FA0EFE10EB0E00CCF1200E93
:1035500051F10001B1F5801F32D201EB045112FA92
:103560000EF2BDE8104058BF7047401C38BF5FEAFC
:10357000420218BF7047002814BF20F0010041F13B
:1035800000014FEA410313F5001F38BF7047A1F156
:10359000C04100F0C1BB012A43EB0302ACF1200C97
:1035A000DCF11F0E32BF4FF0000E23FA0CF310EBCC
:1035B000030041EB0451B4EB115FD0D0A1EB0451F7
:1035C00001F58011490801EB04515FEA30000ED388
:1035D00050F1000038BF12FA0EFE08D1BDE81040CD
:1035E000C9E7401C38BF5FEA4202CAD1C3E7BDE861
:1035F00010404FEA410313F5001F38BF7047A1F197
:10360000C04100F089BB9EEA445F08D011EA5E0F1A
:10361000BDE8104004BF01F0004100207047BDE844
:10362000104070B500F02AFB64FBBE3E0000E0FFD6
:1036300002494FF0000000F0A8BD00BF0000F87F75
:10364000491058BFC1F140415B1058BFC3F140431E
:103650008B42EFF3008070472DE9C04130B4DFF8B2
:10366000A4C23CEA111418BF3CEA131400F0ED8028
:103670001CEA111481EA030544EAD57418BF1CEA58
:10368000131500F0C880A4EB050404F17F7404F561
:1036900000344FF0004545EAC12145EAC32341EA21
:1036A000505143EA52534FEAC0204FEAC222994296
:1036B00008BF904200F09D804FEA13650FF2441658
:1036C000765D4FEA134506FB05F7C7F1807706FBE9
:1036D00007F74FEAD737A7FB03687642A7FB06CE6A
:1036E000C8F5803838BFA8F1010807FB08E6A6FB3B
:1036F000028C4FF0000EE6FB03CEDCF1000CCEF1A5
:10370000004E38BFAEF1010EA6FB0C584FF000077B
:10371000E6FB0E87A1FB08C6A0FB07CE16EB0E0644
:103720004FF0000545F10005E1FB076515F1E04E9E
:103730007EBFA4F580345FEA46066D4116F180072E
:1037400045F100054FEA172747EA05674FEA1525B7
:103750004FEA0666A6F1DE46B6F1805F20D938460C
:1037600005EBC47124F0010C01EB0C11BCF1FE6FF0
:1037700002D8F0BCBDE8008124425CBF01F5801E88
:103780009EEAC47F02D4F0BCBDE80081244200F16F
:103790003980A1F1C041F0BCBDE8004100F0BCBAE5
:1037A0004FEAD02040EA41504FEAD1214FEAD222DD
:1037B00042EA43524FEAD323A7FB028607FB036684
:1037C00005FB02661EEA0E0F58BFA6EB0056B6EBCD
:1037D00000564FEA520E4EEAC37E18EB0E0E56EB21
:1037E000530EBCD518EB02085E417F1C55F1000555
:1037F000B5E74FF480154FF000074FF000064FF08B
:103800000008ACE701F1C04101F000414FF00000B9
:10381000F0BCBDE800810CEA131511EA0C1F00D0C2
:103820000CE013EA0C1F00F026804FF0000081EA44
:10383000030101F00041F0BCBDE80081F0BCBDE82F
:10384000004181EA030100F067BAF0BCBDE8004125
:1038500070B500F013FA00BF097EFC3E00F007B817
:103860004FF0000081EA030101F00041704781EA56
:10387000030100F051BAF0BCBDE8004122494FF00D
:1038800000007047FFFDFBF9F7F5F4F2F0EEEDEB09
:10389000E9E8E6E4E3E1E0DEDDDBDAD8D7D5D4D34E
:1038A000D1D0CFCDCCCBCAC8C7C6C5C4C2C1C0BF9A
:1038B000BEBDBCBBBAB9B8B7B6B5B4B3B2B1B0AFA0
:1038C000AEADACABAAA9A8A8A7A6A5A4A3A3A2A184
:1038D000A09F9F9E9D9C9C9B9A999998979796953F
:1038E00095949393929191908F8F8E8E8D8C8C8BDB
:1038F0008B8A898988888787868585848483838263
:10390000828181800000FF070000F87F51EA030CEC
:1039100017D41CF5801F58BFBCF5801F00F106802E
:10392000994218BF704708BF9042704707D711F5FA
:10393000801F58BF13F5801F19D4994270478942E0
:1039400070471CF5801F08D5BCF5801FF7D58B424A
:1039500018BF704708BF824270474FF4001C1CEB31
:10396000410F38BF1CEB430F01D28B42704770B53B
:1039700000F084F9922449004FF000514FF0805339
:10398000FFF75EBE4FEA41034FEA5353A3F580634E
:10399000D3F11E03C8BFD3F1210C0CDD4FF0004260
:1039A00042EAC12242EA505232FA03FC8CEAE17C3C
:1039B000ACEBE1707047102BC4BF0020704703F5DB
:1039C000787CBCF1FF3F04D06FF0004282EA210016
:1039D000704770B500F052F949922480002070477A
:1039E000F2E710F0004248BF4042B0FA80F310FA0C
:1039F00003F10AD0C3F11D0303F5806302EB035208
:103A00004FEA415002EBD12170474FF00000704760
:103A1000B0FA80F310FA03F10AD0C3F11D0303F5E5
:103A200080634FEA03524FEA415002EBD1217047C5
:103A30004FF000007047000051EA030C17D41CF54A
:103A4000801F58BFBCF5801F00F10680994218BF47
:103A5000704708BF9042704707D711F5801F58BFC5
:103A600013F5801F19D499427047894270471CF59D
:103A7000801F08D5BCF5801FF7D58B4218BF704753
:103A800008BF824270474FF4001C1CEB410F38BF47
:103A90001CEB430F01D28B42704770B500F0EEF87B
:103AA000922449004FF080514FF00053FFF7C8BDFA
:103AB00051EA030C17D41CF5801F58BFBCF5801FBA
:103AC00000F10680994218BF704708BF90427047C6
:103AD00007D711F5801F58BF13F5801F19D49942DD
:103AE0007047894270471CF5801F08D5BCF5801FC0
:103AF000F7D58B4218BF704708BF824270474FF41A
:103B0000001C1CEB410F38BF1CEB430F01D28B4252
:103B1000704770B500F0B2F8922449004FF00051A0
:103B20004FF08053FFF78CBD70B5DFF848C11CEA39
:103B3000111E1EBF1CEA13159EEA0C0F95EA0C0F0E
:103B400000F06F8081EA03044EEAD47EAE4421EA9D
:103B50004C1123EA4C1341F4801143F48013AEF16D
:103B60007F7EA1FB024CA0FB0365361955EB0C05CB
:103B7000A1FB034C4CF10003A0FB021C16EB0C064E
:103B8000654153F10003094218BF46F0010613F4E2
:103B9000007F0BD14FEA03314FEA053041EA15515E
:103BA00040EA165034036FF003020AE04FEAC321E3
:103BB0004FEAC52041EA555140EA5650F4026FF0F1
:103BC000020202EB2E4201EB025585EACE710AD0C9
:103BD0005FEA440C18BF24F0004450F1000041F1AA
:103BE000000120EAD47040F2FE7C624500D270BD34
:103BF000A84214BF4FF080444FF04044002E08BF4D
:103C00000024BEF1806FA8BFA1F1C041BDE87040A3
:103C100080F2828001F1C04101F000414FF00000CC
:103C200070470CEA13159EEA0C0F18BF95EA0C0FAB
:103C300006D081EA030E4FF000000EF0004170BD87
:103C400000F01CF88900013E00F007B800F009B848
:103C50004FEA430C5FEA5C5C08D081EA030100F0A4
:103C60005BB84FEA410C5FEA5C5CF6D102494FF069
:103C7000000070470000FF070000F87F0EF1020E01
:103C80002EF0030E5EF8046B364205D4012A43EB96
:103C9000030515F5001F12D8012841EB010C1CF596
:103CA000001F0CD80ED14FEAD17C0CEB4C0C0CF160
:103CB000020C15F5001F08BF4CEBD37C04E04FF05D
:103CC000080C01E04FEAD37C0CEB4C0526FA05F614
:103CD00006F00706B6F1040C06D20EEB860CBDE822
:103CE00070404CF0010C6047DFE80CF0090B020259
:103CF0004FF00041A1F500214FF0000070BD1946C2
:103D00001046012851EB010418BFD4F5001484BFFC
:103D1000002001F0004170BD0808A0F500114FEA35
:103D20003101704753EA010C17D41CF5801F58BFAE
:103D3000BCF5801F00F106808B4218BF704708BF9A
:103D40008242704707D713F5801F58BF11F5801FB7
:103D500019D48B4270479B4270471CF5801F08D5D1
:103D6000BCF5801FF7D5994218BF704708BF904235
:103D700070474FF4001C1CEB430F38BF1CEB410F86
:103D800001D2994270470FB40CBC03BCFFF7C1BE0F
:103D900010B591EA030F81F000413FF5A9AB83F024
:103DA000004300F0D5B800002DE9F04101F5801C7A
:103DB000BCF5001FC0F2A9804FEA115C21EA0C514A
:103DC00041F480110CF1FD0C5FEA5C0C0CF5C07C39
:103DD00001D340004941890241EA905187022EA453
:103DE0008E0EA45D0A0C04FB04F602FB06F6C6F177
:103DF0004046A4FB0662F60D46EA422606FB06F4A0
:103E0000A4FB01235242C3F1404338BF5B1EA6FB13
:103E100002420024E6FB0324D20B42EA4446A6FBFE
:103E20000623A1FB02E2A3FB07E4E3FB6142644239
:103E3000C2F1404E38BFAEF1010EA6FB04234FF095
:103E40000002E6FB0E32A2FB03463400E2FB626492
:103E5000A1FB06E6A4FB07E8E4FB61687642C8F133
:103E6000405838BFA8F10108A2FB06E4A3FB08E50F
:103E7000E2FB6854A1FB05E6A7FB04E8E1FB6486CE
:103E800018F1200556F10006A80940EA8660B1093C
:103E9000A8F11B0808F03F08B8F10A0F1CD901EB84
:103EA0000C51BDE8F08100BFFCF5EEE8E2DDD8D3AF
:103EB000CFCBC7C3C0BDB9B6B4B1AEACA9A7A5A39B
:103EC000A19F9D9B9A9896959392908F8D8C8B89AC
:103ED0008887868584838281A0FB006800FB01F2CD
:103EE00008EB4208B8EB872807D5341858EB0104D3
:103EF000D5D5401C51F10001D1E7341A78EB01040B
:103F0000CDD4401E71F10001C9E75FEA4C0C5FEAB5
:103F10009C5C0DD105D301F000414FF00000BDE8DD
:103F2000F081BDE8F04170B5FFF7A8FE6DDBFFBE84
:103F3000BDE8F04101494FF0000070470000F87FF4
:103F400010B591EA030F48BF83F000433FF5D0AAB4
:103F5000841A71EB030C07D28CF0004C121943EB5E
:103F60000C03001B61EB0C014FEA1154A4EB135C32
:103F7000DFF8A4E11EEA430F18BF9EEA445F00F099
:103F8000B48021EA045123EA6E035242C3EB6E036C
:103F900038BF5B1EDCF1200E25D322FA0CFE10EB9D
:103FA0000E0043FA0CFE41EB0E01CCF1200E03FA99
:103FB0000EFE10EB0E00CCF1200E51F1000129D4C1
:103FC00001EB045112FA0EF2BDE8104058BF7047E1
:103FD000401C1CBFB2F1004F704700280CBF491CA9
:103FE00020F00100704712EB020E43EB030218BFF2
:103FF0004FF0010E4EEA4202ACF1200CDCF11E0E35
:1040000056D943FA0CFE10EB0E00CCF11E0E51F106
:10401000FF31D5D50EF1010E12FA0EFE404141EBF3
:10402000010101EB445C5FEA5C5C10D901EB0451D7
:1040300010EBDE7038BFBEF1004FBDE8104018BF76
:10404000704700280CBF491C20F00100704734D293
:104050004FEAD42C24F4006411F500111BD0B1FAFE
:1040600081F20B3AA41AA41ED2F12003914030FA37
:1040700003F31943904001EBCC7101EB0451002C88
:10408000BDE81040A8BF704701F1C04101F00041F8
:104090004FF000007047B0FA80F310FA03F102D13C
:1040A000BDE810407047E41A173C4805C90AE2E72A
:1040B00001EB0451BDE81040704749104FEA300051
:1040C00001EB0451BDE8104002E04FF000017047E1
:1040D0004A0008BF0042F8D0B2F5001F28BF704761
:1040E00001F000414FF0000070479EEA445F07D0A6
:1040F00011EA5E0FBDE8104004BF002100207047A8
:10410000BDE8104070B5FFF7B9FD00BF40DFF63ED7
:10411000104683F0004170470000E0FF10B5FFF744
:10412000F5FB0CBF0120002010BD10B5FFF7EEFB22
:1041300014BF0120002010BD10B5FFF77DFC8CBF1F
:104140000120002010BD10B5FFF776FC2CBF012028
:10415000002010BD10B5FFF7ABFC94BF012000207C
:1041600010BD10B5FFF7A4FC34BF0120002010BD26
:10417000F1EE100A4FF6FF71C0F2C03120EA0100E3
:1041800040F04070E1EE100A70470CF00F03092B6D
:1041900008BF082000F059800A2B0BD0082B18BF4D
:1041A000704708BF1CF0400F0AD04FF000004FF0DE
:1041B000000170471CF0400F18BF4FF000407047DF
:1041C0001CF0100F08D000F07F4220F0704342EA4C
:1041D000D3014FEA4370704700F0604021F07F4206
:1041E00042EA000201F07F4040EA727070474FF0EF
:1041F000FF0C4CF4E06C1CEA11531CBF9CEA030C4E
:104200009445C2BFDA4201EB02517047002B0DD03A
:10421000BCF1000F0FD001F00041002AA4BF41F013
:10422000E04141F07F614FF00000704701F0004134
:104230004FF00000704750EA01334FF09B0C18BF5D
:104240004CF0806C7FF4F4A970471CF4801F11D0EF
:104250001CF4E02F03D06FEACC31490070474FF0D7
:104260004050EFF3008222F0704242EA000282F3F3
:10427000008870474FF00000704700000000000009
:10428000000000000000F03F000000000000F83FC8
:1042900000000000000000000000004003B8E23F02
:1042A000000000000000000006D0CF43EBFD4C3EB4
:1042B000033333333333E33FFFAB6FDBB66DDB3FA9
:1042C0004D268F515555D53F01411DA96074D13FF1
:1042D00065DBC9934A86CD3FEF4E454A287ECA3FEB
:1042E0003E5555555555C53F93BDBE166CC166BF6D
:1042F0002CDE25AF6A56113FF16BD2C541BDBBBE66
:10430000D0A4BE726937663E0000000000000000C5
:104310000000000000000000010203040607080975
:1043200002030405060708090A0B0C0D0E0F1010F6
:104330000102030405060708090A0B0C0D0E0F10F5
:10434000604300080000002010000000C4010008C5
:104350007043000810000020680D0000E001000814
:10436000010000001000000000127A0000000000B0
:040000050800018965
:00000001FF
